:0400000007EF00F016
:0A0008007E82ADED0BF0B7EF16F0AD
:10100000003738392F3435362A3132332D23303DED
:101010002B54656D70657261747572650053656EF1
:10102000736F7220313A20004D6F6E69746F726970
:101030006E670043656C73697573005379737465EB
:101040006D00256900001350800B1C6E1350132493
:10105000226E12AE2EEF08F030EF08F031EF08F0FC
:1010600022802250D8B437EF08F039EF08F04CEF67
:1010700008F02228D8A43FEF08F041EF08F049EF2C
:1010800008F0000E106E000E116E000E126E000EB3
:10109000136E128E54EF08F0000E106E000E116EDB
:1010A000000E126E000E136E1750800B1C1A175094
:1010B0001724216E16AE5FEF08F061EF08F062EFC3
:1010C00008F021802150D8B468EF08F06AEF08F0EA
:1010D0007DEF08F02128D8A470EF08F072EF08F037
:1010E0007AEF08F0000E146E000E156E000E166EEC
:1010F000000E176E168E85EF08F0000E146E000EAF
:10110000156E000E166E000E176E2150D8B48BEFC0
:1011100008F08DEF08F095EF08F02250D8A493EF77
:1011200008F095EF08F09FEF08F0000E106E000E2B
:10113000116E000E126E000E136E37EF0AF016508D
:101140001002F3CF27F0F4CF28F027501D6E1E6A4F
:101150001F6A206A2850236E246A256A266A155061
:101160001102F3CF27F0F4CF28F027501D26000EF0
:101170001E221F22202228502326000E2422252250
:10118000262214501202F3CF27F0F4CF28F0275074
:101190001D26000E1E221F22202228502326000E6C
:1011A0002422252226221FC020F01EC01FF01DC0B1
:1011B0001EF01D6A14501102F3CF27F0F4CF28F06F
:1011C00027501D2628501E22000E1F22000E20220E
:1011D00015501002F3CF27F0F4CF28F027501D262A
:1011E00028501E22000E1F22000E20221FC020F0B9
:1011F0001EC01FF01DC01EF01D6A14501002F3CF58
:1012000027F0F4CF28F027501D2628501E22000E6C
:101210001F22000E202216501102F3CF27F0F4CF28
:1012200028F02750232628502422000E2522000EC5
:10123000262215501202F3CF27F0F4CF28F02750C2
:10124000232628502422000E2522000E2622165086
:101250001202F3CF27F0F4CF28F02750186E285051
:10126000196E1A6A1B6A1AC01BF019C01AF018C04E
:1012700019F0186A18502326195024221A502522D2
:101280001B5026221DC018F01EC019F01FC01AF0F6
:1012900020C01BF0190E52EF09F0D8901B321A3201
:1012A00019321832E82E4DEF09F018502326195044
:1012B00024221A5025221B5026221FC020F01EC0B7
:1012C0001FF01DC01EF01D6A215022C018F0196ABF
:1012D0001826000E1922820E1824276EFF0E1920E0
:1012E000286E88EF09F0D890233624362536263626
:1012F00020AE7DEF09F07FEF09F080EF09F0238049
:10130000D8901D361E361F3620362706D8A0280650
:1013100025AE8DEF09F08FEF09F073EF09F0000EA5
:10132000216E20AE96EF09F098EF09F0BCEF09F0BE
:10133000FF0E1D14186EFF0E1E14196EFF0E1F14E3
:101340001A6E7F0E20141B6E185019101A101B10E5
:10135000D8B4ADEF09F0AFEF09F0B3EF09F0010E2B
:10136000216EBCEF09F023A0B8EF09F0BAEF09F045
:10137000BCEF09F0AFEF09F02150D8B4C2EF09F08B
:10138000C4EF09F0E8EF09F0010E2326000E242235
:101390002522262226A0CFEF09F0D1EF09F0E8EFB1
:1013A00009F023C018F024C019F025C01AF026C097
:1013B0001BF01B341B321A321932183218C023F0BA
:1013C00019C024F01AC025F01BC026F0274A282A8D
:1013D00028BEF3EF09F0285008E12728D8A0F3EF42
:1013E00009F0F5EF09F0FFEF09F0000E236E000E93
:1013F000246E800E256E7F0E266E2DEF0AF028BE1D
:101400000CEF0AF0285006E12704D8B00AEF0AF0E2
:101410000CEF0AF018EF0AF0000E236E000E246E97
:10142000000E256E000E266E000E1C6E2DEF0AF0CB
:1014300027C022F0FF0E2316FF0E24167F0E25165E
:10144000000E261622A027EF0AF029EF0AF02AEF55
:101450000AF0258ED8902230266E1C50261223C00A
:1014600010F024C011F025C012F026C013F01200B5
:1014700066EC19F0E70E1B6E000E1C6E010E1D6E61
:10148000050E1E6E110E1F6E100E206ECBEC17F0A7
:10149000726EE70E1B6E000E1C6E020E1D6E060EA7
:1014A0001E6E280E1F6E100E206ECBEC17F0726EA3
:1014B000E70E1B6E000E1C6E030E1D6E080E1E6ED8
:1014C0003B0E1F6E100E206ECBEC17F0726E150ED9
:1014D000606E4B0E5F6EBE0EE82EFED75F2EFCD701
:1014E000602EFAD700D0E70E106E000E116E010EBE
:1014F000126E7EEC16F0726EE70E106E000E116E1C
:10150000020E126E7EEC16F0726EE70E1B6E000E6F
:101510001C6E020E1D6E010E1E6E1D0E1F6E100E35
:10152000206ECBEC17F0726EE70E1B6E000E1C6E79
:10153000030E1D6E010E1E6E1D0E1F6E100E206E10
:10154000CBEC17F0726EE70E1B6E000E1C6E020ED7
:101550001D6E0E0E1E6E330E1F6E100E206ECBEC27
:1015600017F0726EE70E1B6E000E1C6E030E1D6EE2
:101570000E0E1E6E330E1F6E100E206ECBEC17F08B
:10158000726EED0E0B6E000E0C6E000E0D6E700E78
:101590000E6E000E0F6E0BEC16F0726EED0E0B6EF3
:1015A000000E0C6E010E0D6E6E0E0E6E000E0F6EA6
:1015B0000BEC16F0726EF60E146E280E156E9C0E65
:1015C000166E400E176E70C002F071C003F0046A10
:1015D000056A000E10EC0DF002C010F003C011F00F
:1015E00004C012F005C013F023EC08F010C029F07D
:1015F00011C02AF012C02BF013C02CF0DBEC11F05C
:1016000029C063F02AC064F0F60E146E280E156E21
:101610009C0E166E400E176E6EC002F06FC003F087
:10162000046A056A000E10EC0DF002C010F003C051
:1016300011F004C012F005C013F023EC08F010C044
:1016400029F011C02AF012C02BF013C02CF0DBECF3
:1016500011F029C061F02AC062F063C002F064C0DA
:1016600003F0000E056E0A0E046ED1EC15F002C0F8
:1016700063F003C064F061C002F062C003F0000ECA
:10168000056E0A0E046ED1EC15F002C061F003C0C5
:1016900062F0C20E566E000E576E6350F4EC13F0FB
:1016A000726EBB0E566E000E576E6150F4EC13F066
:1016B000726EE70E1B6E000E1C6E020E1D6E0B0E80
:1016C0001E6EC20E1F6E000E206ECBEC17F0726EF7
:1016D000E70E1B6E000E1C6E030E1D6E0B0E1E6EB3
:1016E000BB0E1F6E000E206ECBEC17F0726E6450B6
:1016F00009E11A0E635CD8A080EF0BF082EF0BF0CB
:101700008AEF0BF0F30E0C6E000E0D6E53EC18F01A
:1017100090EF0BF0F30E0C6E000E0D6E33EC18F024
:10172000625009E11A0E615CD8A099EF0BF09BEFB3
:101730000BF0A3EF0BF0F10E0C6E000E0D6E53ECE0
:1017400018F0C1EF0AF0F10E0C6E000E0D6E33ECC6
:1017500018F0C1EF0AF007EF00F00600F2A8B3EFAF
:101760000BF0B5EF0BF0BEEF0BF0F2A2BAEF0BF0FF
:10177000BCEF0BF0BEEF0BF073EC19F0F0A6C3EF6B
:101780000BF0C5EF0BF0CEEF0BF0F0A0CAEF0BF0B3
:10179000CCEF0BF0CEEF0BF071EC19F0F0A8D3EF1B
:1017A0000BF0D5EF0BF0DEEF0BF0F0A2DAEF0BF061
:1017B000DCEF0BF0DEEF0BF06FEC19F0F2A6E3EFCD
:1017C0000BF0E5EF0BF000EF0CF0F2A0EAEF0BF0FE
:1017D000ECEF0BF000EF0CF081A8F1EF0BF0F3EF62
:1017E0000BF000EF0CF07D04D8A4F9EF0BF0FBEF49
:1017F0000BF000EF0CF0000E7D6E000E4CEC19F0BB
:10180000F2A605EF0CF007EF0CF022EF0CF0F2A0BF
:101810000CEF0CF00EEF0CF022EF0CF081B813EF90
:101820000CF015EF0CF022EF0CF07D50D8A41BEF5C
:101830000CF01DEF0CF022EF0CF0010E7D6E010E8E
:101840004CEC19F0F2A627EF0CF029EF0CF044EF66
:101850000CF0F2A02EEF0CF030EF0CF044EF0CF097
:1018600081AA35EF0CF037EF0CF044EF0CF07C045C
:10187000D8A43DEF0CF03FEF0CF044EF0CF0000E5D
:101880007C6E000E3FEC19F0F2A649EF0CF04BEF26
:101890000CF066EF0CF0F2A050EF0CF052EF0CF0F1
:1018A00066EF0CF081BA57EF0CF059EF0CF066EFD1
:1018B0000CF07C50D8A45FEF0CF061EF0CF066EFF9
:1018C0000CF0010E7C6E010E3FEC19F0F2A66BEFEE
:1018D0000CF06DEF0CF088EF0CF0F2A072EF0CF052
:1018E00074EF0CF088EF0CF081AC79EF0CF07BEF2B
:1018F0000CF088EF0CF07B04D8A481EF0CF083EFA0
:101900000CF088EF0CF0000E7B6E000E32EC19F03C
:10191000F2A68DEF0CF08FEF0CF0AAEF0CF0F2A016
:1019200094EF0CF096EF0CF0AAEF0CF081BC9BEF5B
:101930000CF09DEF0CF0AAEF0CF07B50D8A4A3EFB5
:101940000CF0A5EF0CF0AAEF0CF0010E7B6E010E6F
:1019500032EC19F0F2A6AFEF0CF0B1EF0CF0CCEFD7
:101960000CF0F2A0B6EF0CF0B8EF0CF0CCEF0CF0EE
:1019700081AEBDEF0CF0BFEF0CF0CCEF0CF07A04B1
:10198000D8A4C5EF0CF0C7EF0CF0CCEF0CF0000EB4
:101990007A6E000E25EC19F0F2A6D1EF0CF0D3EF21
:1019A0000CF0EEEF0CF0F2A0D8EF0CF0DAEF0CF048
:1019B000EEEF0CF081BEDFEF0CF0E1EF0CF0EEEF9C
:1019C0000CF07A50D8A4E7EF0CF0E9EF0CF0EEEF52
:1019D0000CF0010E7A6E010E25EC19F09DA6F3EFC6
:1019E0000CF0F5EF0CF0FEEF0CF09EA6FAEF0CF009
:1019F000FCEF0CF0FEEF0CF06BEC19F0A0A603EF7F
:101A00000DF005EF0DF00EEF0DF0A1A60AEF0DF0B1
:101A10000CEF0DF00EEF0DF06DEC19F07E92110051
:101A20000A6E0A50D8B417EF0DF019EF0DF03BEF26
:101A30000DF005BE20EF0DF01EEF0DF03BEF0DF0A9
:101A400002C006F003C007F004C008F005C009F0AA
:101A5000061E071E081E091E062A000E072208225F
:101A6000092206C00CF007C00DF008C00EF009C036
:101A70000FF043EF0DF002C00CF003C00DF004C0F6
:101A80000EF005C00FF00250031004100510D8A48A
:101A90004CEF0DF04EEF0DF058EF0DF0000E026E12
:101AA000000E036E000E046E000E056EE9EF0DF0E1
:101AB000960E0B6E62EF0DF00B2AD8900F320E329D
:101AC0000D320C32000E0C14066E000E0D14076E53
:101AD000000E0E14086EFE0E0F14096E065007104D
:101AE00008100910D8A477EF0DF079EF0DF05CEF36
:101AF0000DF087EF0DF00B2A010E0C26000E0D22C3
:101B00000E220F22D8900F320E320D320C32000E00
:101B10000C14066E000E0D14076E000E0E14086EE7
:101B2000FF0E0F14096E0650071008100910D8A4F4
:101B30009CEF0DF09EEF0DF07BEF0DF0A6EF0DF09A
:101B40000B06D8900C360D360E360F360EBEABEFA8
:101B50000DF0ADEF0DF0B5EF0DF0020E0B60B3EF31
:101B60000DF0B5EF0DF0A0EF0DF00BB0BAEF0DF0EA
:101B7000BCEF0DF0BDEF0DF00E9ED8900B320BC0F8
:101B800006F0076A086A096A06C009F0086A076A67
:101B9000066A06500C1207500D1208500E1209501A
:101BA0000F120A50D8B4D7EF0DF0D9EF0DF0E1EFD6
:101BB0000DF005BEE0EF0DF0DEEF0DF0E1EF0DF002
:101BC0000F8E0CC002F00DC003F00EC004F00FC069
:101BD00005F0120020BEEFEF0DF0F2EF0DF0010E58
:101BE000F3EF0DF0000E296E2950D8B4FAEF0DF086
:101BF000FCEF0DF000EF0EF01F6C201ED8B0202A75
:101C0000000198BF08EF0EF006EF0EF00EEF0EF099
:101C1000000E246E010E236E12EF0EF097C023F01B
:101C200098C024F095C025F096C026F02950D8B46D
:101C30001CEF0EF01EEF0EF035EF0EF02506D8A0CB
:101C400026062950D8A427EF0EF029EF0EF02FEF2B
:101C50000EF0000E226E2B0E216E33EF0EF0000EF2
:101C6000226E2D0E216E21C029F0000E286E1F0E4F
:101C7000276E000E01011F6F6EEF0EF02706D8A031
:101C80002806000E2724D96E010E2820DA6E1FC008
:101C900002F020C003F0000E056E0A0E046E51EC37
:101CA00014F002C008F003C009F073EC18F00850FB
:101CB000300FDF6E2306D8A024062506D8A02606FE
:101CC0001FC002F020C003F0000E056E0A0E046E65
:101CD00092EC13F002C01FF003C020F028BE79EF91
:101CE0000EF0285008E12704D8A079EF0EF07BEF22
:101CF0000EF091EF0EF01F502010D8A482EF0EF0DE
:101D000084EF0EF03EEF0EF024BE91EF0EF0245063
:101D100006E12304D8B08FEF0EF091EF0EF03EEF06
:101D20000EF02950D8B497EF0EF099EF0EF0A4EF13
:101D30000EF02706D8A02806000E2724D96E010E23
:101D40002820DA6E29C0DFFF1DC012F01EC013F07C
:101D5000000E2724146E010E2820156E25C016F0E3
:101D600026C017F094EC15F0120002C00CF003C06E
:101D70000DF006500710D8A4C0EF0EF0C2EF0EF021
:101D8000C4EF0EF06FEF0FF00CC0D9FF0DC0DAFFFB
:101D900004C0DFFF06500C24086E07500D20096EAA
:101DA000FF0E0824D96EFF0E0920DA6E04C0DFFF93
:101DB000075007E1030E065CD8B0E1EF0EF0E3EF49
:101DC0000EF0E5EF0EF06FEF0FF020EE01F00C508B
:101DD000D9260D50DA2204C0DFFF20EE02F00C50AD
:101DE000D9260D50DA2204C0DFFF06500C24086EFD
:101DF00007500D20096EFE0E0824D96EFF0E092033
:101E0000DA6E04C0DFFF06500C24086E07500D2068
:101E1000096EFD0E0824D96EFF0E0920DA6E04C08B
:101E2000DFFF075007E1070E065CD8B01AEF0FF08E
:101E30001CEF0FF01EEF0FF06FEF0FF020EE03F02E
:101E40000C50D9260D50DA2204C0DFFF06500C24B6
:101E5000086E07500D20096EFC0E0824D96EFF0E87
:101E60000920DA6E04C0DFFF075007E1090E065CA7
:101E7000D8B03DEF0FF03FEF0FF041EF0FF06FEFF5
:101E80000FF00CC008F00DC009F0081E091E084A2A
:101E9000092A030E08140A6E0B6A0A500C260B500E
:101EA0000D220A50065E0B50075AFC0E0616FF0E56
:101EB000071666EF0FF00CC0D9FF0DC0DAFF04C0A3
:101EC000DFFF0606D8A007060C4A0D2A06500710A9
:101ED000D8A46DEF0FF06FEF0FF05BEF0FF0120073
:101EE000010E0A6E02500310D8B479EF0FF07BEFA9
:101EF0000FF08CEF0FF002C0D9FF03C0DAFFDF3024
:101F0000E832E832070B046E070E04648AEF0FF024
:101F10008CEF0FF0EFEF0FF0000E0A6E10EF10F0E5
:101F200002C0D9FF03C0DAFFDF30E832E832070B26
:101F3000046E010E056E042AA0EF0FF0D89005364E
:101F4000042E9EEF0FF00550FF0A066E02C0D9FF67
:101F500003C0DAFFDF50070B076E0750020DDD0EDE
:101F6000F324D96E000EF420DA6EDECF08F0DDCF58
:101F700009F008C0D9FF09C0DAFF0650DF1610EFDC
:101F800010F002C0D9FF03C0DAFFDF30E832E832D8
:101F9000070B046E010E056E042AD1EF0FF0D890E6
:101FA0000536042ECFEF0FF002C0D9FF03C0DAFFD1
:101FB000DF50070B066E0650020DDD0EF324D96EBE
:101FC000000EF420DA6EDECF07F0DDCF08F007C098
:101FD000D9FF08C0DAFF0550DF1210EF10F002C081
:101FE000D9FF03C0DAFFDFBCF8EF0FF0FBEF0FF013
:101FF000010EFCEF0FF0000E046E056A0550000A9A
:10200000D8B405EF10F08CEF0FF00450000AD8B4EC
:1020100090EF0FF0010AD8B4C1EF0FF08CEF0FF082
:102020000A501200000E186E14501510D8A41BEFA1
:1020300010F01DEF10F021EF10F0000E196EADEF53
:1020400010F014C00CF015C00DF0EEEC16F0196E87
:10205000010E14240C6E000E15200D6EEEEC16F021
:10206000196E000E186E18501424166E000E1520EE
:10207000176E020E16240C6E000E17200D6EEEEC7D
:1020800016F0182A030E186448EF10F04AEF10F00B
:1020900033EF10F0340E166EF20EE82EFED7162E29
:1020A000FCD714C010F015C011F0380E126E7EEC83
:1020B00016F00D0E166EFC0EE82EFED7162EFCD76F
:1020C00014C010F015C011F0380E126E7EEC16F030
:1020D000020E176E860E166E990EE82EFED7162E7D
:1020E000FCD7172EFAD700F014C010F015C011F06D
:1020F000380E126E7EEC16F014C010F015C011F000
:10210000010E126E7EEC16F014C010F015C011F026
:10211000020E126E7EEC16F014C010F015C011F015
:10212000060E126E7EEC16F014C010F015C011F001
:102130000C0E126E7EEC16F014C010F015C011F0EB
:10214000280E126E7EEC16F014C010F015C011F0BF
:10215000800E126E7EEC16F0196E195012002CC013
:10216000D9FF2DC0DAFFDECFF6FFDDCFF7FFF86A2B
:102170000800F550250AD8A4C0EF10F0C2EF10F007
:102180002FEF11F02CC0D9FF2DC0DAFFDE2A000E90
:10219000DD22000E0001966F000E956F95C065F070
:1021A000976998692CC0D9FF2DC0DAFFDECF36F0D1
:1021B000DDCF37F036C0F6FF37C0F7FFF86A08000A
:1021C000F550640AD8B4E7EF10F0E9EF10F0F8EF3B
:1021D00010F036C0F6FF37C0F7FFF86A0800F55078
:1021E000690AD8A4F6EF10F0F8EF10F026EF11F01E
:1021F0002EC0D9FF2FC0DAFFDFCF30F0020EDE266F
:10220000DFCF31F0000EDD2230C0D9FF31C0DAFF60
:10221000DECF32F0DDCF33F0010E3624306E000E0B
:102220003720316E2CC0D9FF2DC0DAFF30C0DEFF61
:1022300031C0DDFF2AC01DF02BC01EF032C01FF0E0
:1022400033C020F0EAEC0DF044EF11F02CC0D9FFC0
:102250002DC0DAFFDE2A000EDD2244EF11F02CC083
:10226000D9FF2DC0DAFFDECFF6FFDDCFF7FFF86A2A
:102270000800F550026E036A2AC004F02BC005F076
:10228000CAEC12F026EF11F01200010E0B6E025094
:102290000310D8B44EEF11F050EF11F061EF11F0D0
:1022A00002C0D9FF03C0DAFFDF30E832E832070BA3
:1022B000056E070E05645FEF11F061EF11F0C4EFDA
:1022C00011F0000E0B6ED9EF11F002C0D9FF03C060
:1022D000DAFFDF30E832E832070B056E010E066EDA
:1022E000052A75EF11F0D8900636052E73EF11F020
:1022F0000650FF0A076E02C0D9FF03C0DAFFDF50A5
:10230000070B086E0850020DD30EF324D96E000E91
:10231000F420DA6EDECF09F0DDCF0AF009C0D9FF74
:102320000AC0DAFF0750DF16D9EF11F002C0D9FF5B
:1023300003C0DAFFDF30E832E832070B056E010E2A
:10234000066E052AA6EF11F0D8900636052EA4EFEA
:1023500011F002C0D9FF03C0DAFFDF50070B076E90
:102360000750020DD30EF324D96E000EF420DA6E5E
:10237000DECF08F0DDCF09F008C0D9FF09C0DAFFD1
:102380000650DF12D9EF11F00450056E066A0650B0
:10239000000AD8B4CEEF11F061EF11F00550000A39
:1023A000D8B465EF11F0010AD8B496EF11F061EFDF
:1023B00011F00B5012002B342C34326E3250D8A452
:1023C000E4EF11F0E6EF11F0F0EF11F0000E296EDE
:1023D000000E2A6E000E2B6E000E2C6E5DEF12F0BA
:1023E00029C02DF02AC02EF02BC02FF02CC030F0C9
:1023F000200E00EF12F0D89030322F322E322D32D4
:10240000E82EFBEF11F02D50316E2B8EFF0E2916AA
:10241000FF0E2A16FF0E2B16000E2C16960E325E9D
:1024200032BE17EF12F015EF12F02DEF12F032500E
:10243000800A970FD8B01FEF12F021EF12F023EFB0
:1024400012F0E6EF11F0D8902C322B322A322932DA
:10245000323E23EF12F045EF12F01F0E326433EFDD
:1024600012F035EF12F03DEF12F0E6EF11F0D890D8
:1024700029362A362B362C3632063250D8A443EF72
:1024800012F045EF12F037EF12F03150D8B44BEFA5
:1024900012F04DEF12F055EF12F02C1E2B1E2A1EDB
:1024A000296C000E2A222B222C2229C029F02AC0B6
:1024B0002AF02BC02BF02CC02CF01200046E88EFF9
:1024C00012F09280C9EF12F09282C9EF12F092845A
:1024D000C9EF12F09286C9EF12F0928AC9EF12F09A
:1024E0009680C9EF12F09682C9EF12F09684C9EF78
:1024F00012F09384C9EF12F09386C9EF12F0938221
:10250000C9EF12F09388C9EF12F09380C9EF12F06F
:102510000450026E036A0350000AD8B492EF12F01E
:10252000C9EF12F00250000AD8B461EF12F0010AAC
:10253000D8B464EF12F0030AD8B467EF12F0010ABE
:10254000D8B46AEF12F0070AD8B46DEF12F0010A9E
:10255000D8B470EF12F0030AD8B473EF12F0010A86
:10256000D8B476EF12F00F0AD8B479EF12F0010A5E
:10257000D8B47CEF12F0030AD8B47FEF12F0010A4E
:10258000D8B482EF12F0070AD8B485EF12F0C9EF81
:1025900012F0120004500510D8B4D1EF12F0D3EFAE
:1025A00012F0DCEF12F004500510D8A4DAEF12F0AC
:1025B000DCEF12F0E1EF12F0025075EC19F02EEFA3
:1025C00013F020EE0AF00450D9260550DA22DE502E
:1025D000DE10D8B4EEEF12F0F0EF12F00BEF13F0C4
:1025E00020EE0AF00450D9260550DA2210EE03F04E
:1025F0000450E1260550E222DE50E65CE650800AF7
:102600000A6EDE50800A0A58D8B009EF13F00BEFBB
:1026100013F02EEF13F020EE03F00450D9260550EE
:10262000DA22DECF06F0DDCF07F004C0D9FF05C007
:10263000DAFFDECF08F0DDCF09F006500824D96EAE
:1026400007500920DA6E02C0DFFF20EE03F00450CD
:10265000D9260550DA22DE2A000EDD221200010EF4
:102660000A6E02500310D8B438EF13F03AEF13F0AB
:1026700043EF13F004500510D8A441EF13F043EFDB
:1026800013F047EF13F0000E0A6E90EF13F020EEF8
:1026900003F00250D9260350DA22DFA252EF13F0E2
:1026A00054EF13F068EF13F0C350C4CF06F0076A7D
:1026B00006C007F0066A0626000E072204C0D9FFEE
:1026C00005C0DAFF06C0DEFF07C0DDFF90EF13F0A4
:1026D00020EE03F00250D9260350DA22DFB273EF66
:1026E00013F075EF13F054EF13F0C3CF06F0060E9E
:1026F000076ED8900632072E79EF13F00650C4CF3C
:1027000008F0096A08C009F0086A0826000E0922C4
:1027100004C0D9FF05C0DAFF08C0DEFF09C0DDFF35
:102720000A501200000E076E05BE9BEF13F099EFE2
:1027300013F0A1EF13F0046C051ED8B0052A010EAA
:10274000076E03BEA8EF13F0A6EF13F0AEEF13F081
:10275000026C031ED8B0032A010E071A000E096E80
:10276000000E086E04500510D8B4B9EF13F0BBEF9B
:1027700013F0E3EF13F0010E066EC3EF13F0D890E1
:1027800004360536062A05AEC8EF13F0CAEF13F07B
:10279000BFEF13F0D890083609360450025C05509C
:1027A0000358D8A0D6EF13F0D8EF13F0DDEF13F0F5
:1027B0000450025E0550035A0880D8900532043256
:1027C000062ECAEF13F00750D8B4E9EF13F0EBEF81
:1027D00013F0EFEF13F0086C091ED8B0092A08C0F7
:1027E00002F009C003F012005C6E010E5D6E000E77
:1027F000586E000E596E000E5A6E000E5B6E000E83
:102800005E6E56505710D8A408EF14F00AEF14F07B
:102810000EEF14F0000E5D6E4FEF14F056C002F094
:1028200057C003F0000E056E200E046E000E076EFA
:10283000030E066EB5EC0EF020EE03F05650D926CE
:102840005750DA22DF6A580E406E000E416E420E7B
:10285000426E100E436E5CC044F0456A80EC17F087
:1028600041EF14F0580E5E24D96EDA6A000EDA22B7
:102870005E505624E16E000E5720E26EDFCFE7FF78
:102880005E2A580E5E24D96EDA6A000EDA22DF5014
:10289000D8A44DEF14F04FEF14F032EF14F05D5068
:1028A0001200000E076E03BE5AEF14F058EF14F03A
:1028B00060EF14F0026C031ED8B0032A010E076EFD
:1028C00005BE67EF14F065EF14F06BEF14F0046CC5
:1028D000051ED8B0052A04500510D8B472EF14F0C4
:1028E00074EF14F098EF14F0010E066E7CEF14F004
:1028F000D89004360536062A05AE81EF14F083EF32
:1029000014F078EF14F00450025C05500358D8A07E
:102910008CEF14F08EEF14F092EF14F00450025E7E
:102920000550035AD89005320432062E83EF14F076
:102930000750D8B49EEF14F0A0EF14F0A4EF14F0F9
:10294000026C031ED8B0032A02C002F003C003F0D9
:102950001200010E1A6E1706DEEF14F014C010F00C
:1029600015C011F01750800F126E7EEC16F01A6E23
:10297000FBEF14F014C010F015C011F01750C00F89
:10298000126E7EEC16F01A6EFBEF14F014C010F00D
:1029900015C011F01750940F126E7EEC16F01A6EDF
:1029A000FBEF14F014C010F015C011F01750D40F45
:1029B000126E7EEC16F01A6EFBEF14F01650186EC5
:1029C000196A1950000AD8B4E8EF14F0FBEF14F0BC
:1029D0001850010AD8B4AEEF14F0030AD8B4BAEF15
:1029E00014F0010AD8B4C6EF14F0070AD8B4D2EF35
:1029F00014F0FBEF14F01A501200010E086E05508F
:102A00000610D8A406EF15F008EF15F00CEF15F03E
:102A1000000E086E4DEF15F0C29005C0D9FF06C03C
:102A2000DAFFDF50076E074607460746C050071813
:102A3000C70B0718C06E20EE01F00550D9260650CE
:102A4000DA22DF50076EC0500718F80B0718C06E67
:102A500020EE02F00550D9260650DA22DF50076E2C
:102A600007460746C2500718C30B0718C26E20EE70
:102A700002F00550D9260650DA22DF505EEC12F043
:102A800005C002F006C003F011EC18F005C002F01A
:102A900006C003F0A6EC17F0C28008501200010E29
:102AA000186E14501510D8A458EF15F05AEF15F001
:102AB00079EF15F0000E186E92EF15F014C010F0BB
:102AC00015C011F016C0F6FF17C0F7FF000EF86E24
:102AD0000F0EF76403D00800F55005D0F6CFE9FFDC
:102AE000F7CFEAFFEF50126E45EC16F0186E164A5B
:102AF000172A16C0F6FF17C0F7FF000EF86E0F0E6C
:102B0000F76403D00800F55005D0F6CFE9FFF7CF02
:102B1000EAFFEF500009D8A490EF15F092EF15F0FE
:102B20005EEF15F01850120017BE99EF15F09BEFED
:102B300015F0A1EF15F016C01BF017C01CF0A5EFA3
:102B400015F0000E1C6E000E1B6E000E1A6E000EAD
:102B5000196EB7EF15F0000E036E200E026E12C054
:102B600004F013C005F0CAEC12F0194A1A2A1B50DF
:102B7000195C1A50800A186E1C50800A1858D8A088
:102B8000C4EF15F0C6EF15F0ABEF15F014C00BF065
:102B900015C00CF012C00DF013C00EF0EFEC17F0E2
:102BA0001200000E076E000E066E04500510D8B419
:102BB000DCEF15F0DEEF15F006EF16F0010E086EF3
:102BC000E6EF15F0D89004360536082A05AEEBEF8F
:102BD00015F0EDEF15F0E2EF15F0D8900636073658
:102BE0000450025C05500358D8A0F9EF15F0FBEF34
:102BF00015F000EF16F00450025E0550035A0680EF
:102C0000D89005320432082EEDEF15F006C002F020
:102C100007C003F012000B500C10D8B412EF16F0DE
:102C200014EF16F01DEF16F00E500F10D8A41BEF86
:102C300016F01DEF16F021EF16F0000E106E43EFA8
:102C400016F00BC005F00CC006F00DC007F0B2EC9A
:102C500018F0106E0BC002F00CC003F013EC19F06A
:102C6000106EC2B236EF16F038EF16F031EF16F0F4
:102C70000BC002F00CC003F00EC004F00FC005F052
:102C80002FEC13F0106E1050120010501110D8A439
:102C90004CEF16F04EEF16F052EF16F0000E136EDA
:102CA0007CEF16F010C002F011C003F0010E046EAC
:102CB00045EC11F0136E10C00CF011C00DF012387D
:102CC0000F0B0E6E24EC17F0136E10C00CF011C039
:102CD0000DF0CFEC18F0136E10C00CF011C00DF019
:102CE00012C00EF024EC17F0136E10C00CF011C0DF
:102CF0000DF0CFEC18F0136E13501200105011109D
:102D0000D8A485EF16F087EF16F08BEF16F0000EC3
:102D1000136EB5EF16F010C002F011C003F0000EF4
:102D2000046E45EC11F0136E10C00CF011C00DF0E4
:102D300012380F0B0E6E24EC17F0136E10C00CF04F
:102D400011C00DF0CFEC18F0136E10C00CF011C0D4
:102D50000DF012C00EF024EC17F0136E10C00CF042
:102D600011C00DF0CFEC18F0136E13501200D40EFA
:102D7000F66E310EF76E000EF86E00EEC9F010EE32
:102D80002CF00900F5CFEEFFE550E150FAE1C00E5E
:102D9000F66E320EF76E000EF86E00EE72F010EE68
:102DA0000CF00900F5CFEEFFE550E150FAE101EE3D
:102DB00000F0200EEE6AE806FDE100EE80F0490E1C
:102DC000EE6AE806FDE100EE61F0110EEE6AE8063B
:102DD000FDE17E907E92000138EF0AF00C500D105C
:102DE000D8B4F5EF16F0F7EF16F008EF17F00CC0B7
:102DF000D9FF0DC0DAFFDF30E832E832070B0E6E84
:102E0000070E0E6406EF17F008EF17F00CEF17F03F
:102E1000000E0F6E22EF17F00CC002F00DC003F091
:102E200070EC0FF00F6E0CC002F00DC003F00CC080
:102E3000D9FF0DC0DAFF000EDFBE010E046E45ECB7
:102E400011F00F6E0F501200020E0C24026E000ED5
:102E50000D20036E0E50010B046E45EC11F0030EB5
:102E60000C24026E000E0D20036ED8900E30010B64
:102E7000046E45EC11F0040E0C24026E000E0D20C1
:102E8000036E0E40E8423F0B010B046E45EC11F05F
:102E9000050E0C24026E000E0D20036E0E38E8465F
:102EA0001F0B010B046E45EC11F00F6E0F5012005A
:102EB0003AC03EF03BC03FF06CEF17F038C02AF04C
:102EC00039C02BF03E0E2C6E000E2D6E3CC02EF045
:102ED0003DC02FF0AFEC10F03EC0F6FF3FC0F7FF53
:102EE000F86A0800F5500009D8A479EF17F07BEFD5
:102EF00017F05EEF17F0000E396E000E386E1200FC
:102F0000440E486E000E496E40C04AF041C04BF07E
:102F1000000E4E6E000E4D6E000E556E000E546E7D
:102F20004A0E386E000E396E42C03AF043C03BF094
:102F3000480E3C6E000E3D6E58EC17F04D5040248C
:102F4000D96E4E504120DA6EDF6A120020EE03F097
:102F50000250D9260350DA22DFA0B1EF17F0B3EF09
:102F600017F0B7EF17F0C18AC188CAEF17F020EE4B
:102F700003F00250D9260350DA22DFB0C2EF17F077
:102F8000C4EF17F0C8EF17F0C19AC198CAEF17F055
:102F9000C19AC19812001B501C10D8A4D2EF17F090
:102FA000D4EF17F0D8EF17F0000E216EEDEF17F009
:102FB0001BC014F01CC015F01DC016F01EC017F089
:102FC000A9EC14F01BC014F01CC015F01FC016F0C3
:102FD00020C017F04FEC15F0216E21501200000EAA
:102FE000116E000E106E00EF18F00FC002F0036AB1
:102FF0000DC004F00EC005F0CAEC12F0104A112A00
:1030000010500B24D96E11500C20DA6EDF500F6E69
:103010000F50D8A40EEF18F010EF18F0F5EF17F0DE
:10302000120020EE03F00250D9260350DA22DFA26C
:103030001CEF18F01EEF18F021EF18F0C08E32EFE1
:1030400018F020EE03F00250D9260350DA22DFB246
:103050002CEF18F02EEF18F031EF18F0C09E32EF81
:1030600018F0C08E12000C500D10D8A43AEF18F0D2
:103070003CEF18F03EEF18F052EF18F00CC002F0E1
:103080000DC003F0000E046E45EC11F00E6E010E43
:103090000C24026E000E0D20036E000E046E45EC33
:1030A00011F00E6E12000C500D10D8A45AEF18F04B
:1030B0005CEF18F05EEF18F072EF18F00CC002F041
:1030C0000DC003F0000E046E45EC11F00E6E010E03
:1030D0000C24026E000E0D20036E010E046E45ECF2
:1030E00011F00E6E120009BE80EF18F0095006E1D3
:1030F0000804D8B07EEF18F080EF18F08EEF18F0CB
:1031000008C00AF009C00BF00A1E0B1E0A4A0B2A5F
:103110000AC008F00BC009F092EF18F008C008F0E0
:1031200009C009F0120010501110D8A49AEF18F03D
:103130009CEF18F0A0EF18F0000E126EB0EF18F030
:1031400010C00CF011C00DF0EEEC16F0126E010E76
:1031500010240C6E000E11200D6EEEEC16F0126EA7
:1031600012501200010E096E05500610D8A4BBEFD4
:1031700018F0BDEF18F0C1EF18F0000E096ECDEF9A
:1031800018F007C008F008460846C2500818C30BDC
:103190000818C26E07505EEC12F009501200010EC2
:1031A0000C24026E000E0D20036E010E046E45EC21
:1031B00011F0030EE82EFED700F0010E0C24026E73
:1031C000000E0D20036E000E046E45EC11F00E6E25
:1031D0000E501200800F810F820F830F840F890F12
:1031E0008A0F8B0F8C0F8D0F920F930F940F950FEB
:1031F000960F020A121A222A050500021119010966
:10320000E70E146E000E156E12EC10F0F30E106E39
:10321000000E116E93EC18F0F10E106E000E116E90
:1032200093EC18F01200010E046E02500310D8A4A3
:103230001CEF19F01EEF19F022EF19F0000E046ECA
:1032400023EF19F0C28204501200016EF290015077
:10325000D8A42DEF19F02FEF19F031EF19F031EF5D
:1032600019F01200016EF2900150D8A43AEF19F053
:103270003CEF19F03EEF19F03EEF19F01200016E2D
:10328000F2900150D8A447EF19F049EF19F04BEF35
:1032900019F04BEF19F01200016EF2900150D8A412
:1032A00054EF19F056EF19F058EF19F058EF19F0E4
:1032B0001200ED0E056E000E066EFDEC14F012000D
:1032C00001685A622A1A622A0101010100EC19F010
:1032D00059EC19F012009E961200A1961200F0927D
:0C32E0001200F0901200F2921200120096
:020000040030CA
:0E000000FF02091EFF8181FF0FC00FE00F40BD
:00000001FF
